S017000042616C616E63696E675F726F626F742E7372656309
S11300000C944B000C945D000C945D000C945D000A
S11300100C945D000C945D000C945D000C945D00E8
S11300200C945D000C945D000C945D000C945D00D8
S11300300C945D000C945D000C945D000C945D00C8
S11300400C945D000C945D000C945D000C945D00B8
S11300500C945D000C945D000C945D000C945D00A8
S11300600C945D000C945D00084AD73B3BCE016EB6
S113007084BCBFFDC12F3D6C74319ABD56833DDAFB
S11300803D00C77F11BED9E4BB4C3E916BAAAABE0A
S1130090000000803F0011241FBECFEFD8E0DEBF78
S11300A0CDBF21E0A0E0B1E001C01D92A632B207AD
S11300B0E1F70E9437020C9428050C940000ECEB45
S11300C0F0E080818E7F808381E08093B800E9EB4B
S11300D0F0E080818D7F8083089584EA8093BC0062
S11300E0ECEBF0E080818823ECF7089584E98093B9
S11300F0BC00ECEBF0E0808184FFFDCF0895809399
S1130100BB0084E88093BC00ECEBF0E080818823A2
S1130110ECF7089520E4829FC00111248468809341
S1130120BC00ECEBF0E080818823ECF78091BB000D
S11301300895CF93DF93D82FC62F0E946D008C2F84
S11301400E947F008D2F0E947F000E946D0081E03D
S11301508C0F0E947F0080E00E948A00C82F0E94BA
S113016076008C2FDF91CF9108951F93CF93DF9367
S1130170D82FC62F142F0E946D00812F0E947F005C
S11301808D2F0E947F008C2F0E947F000E9476009A
S1130190DF91CF911F910895CF9366ED89E20E947C
S11301A09900C82F66ED88E20E9499002C2F30E058
S11301B0322F2227282B3093230120932201CF9121
S11301C00895CF9366ED8DE20E949900C82F66EDE5
S11301D08CE20E9499002C2F30E0322F2227282B0A
S11301E030931F0120931E01CF910895CF9366EDA4
S11301F085E20E949900C82F66ED84E20E9499006E
S11302002C2F30E0322F2227282B309321012093EA
S11302102001CF91089546ED60E680E10E94B5008B
S113022046ED68E388E10E94B50046ED68E389E1A4
S11302300E94B50046ED60E681E10E94B500089594
S11302404F925F926F927F928F929F92AF92BF92E2
S1130250CF92DF92EF92FF920E94CC000E94E100C5
S11302600E94F6006091220170912301072E000C78
S1130270880B990B0E94FC036B017C0160911E01A9
S113028070911F01072E000C880B990B0E94FC0330
S1130290A70196010E94F3022BED3FE049EC5FE3D6
S11302A00E94730220EE3EE245E652E40E94B70447
S11302B06B017C016093120170931301809314010C
S11302C0909315016091200170912101772314F41A
S11302D061587F4F660F672F661F770B072E000C40
S11302E0880B990B0E94FC032DEC3CEC4CE45DE381
S11302F00E94B7046093160170931701809318014C
S11303009093190180900E0190900F01A09010011C
S1130310B0901101A50194010E94740226E73FE404
S11303204EE75FE30E94B7042B013C0120ED34E467
S113033048ED5BE3C701B6010E94B7049B01AC0121
S1130340C301B2010E9474026B017C0160930A0133
S113035070930B0180930C0190930D01609306013F
S11303607093070180930801909309012091020181
S11303703091030140910401509105010E947402DF
S11303800E94C403643D8EEF780714F464ED7EEF9D
S11303906D3281E0780714F06CE271E0072E000CF6
S11303A0880B990B0E94FC03609302017093030174
S11303B0809304019093050120E030E0A9010E949C
S11303C0B7042DEC3CEC4CE45DE30E94B7042B0134
S11303D03C0120E030E048EC52E4C701B6010E9441
S11303E0B7049B01AC01C301B2010E9474022B014A
S11303F03C01A5019401C701B6010E94730220E0EB
S113040030E0A9010E94B7042DEC3CEC4CE45DE320
S11304100E9452039B01AC01C301B2010E9473020A
S11304200E94C40361308FEF780714F461E07FEF1A
S11304306F3F710519F014F06FEF70E070930101D4
S113044060930001C0920E01D0920F01E09210015E
S1130450F0921101FF90EF90DF90CF90BF90AF909A
S11304609F908F907F906F905F904F9008950E941F
S11304705F000E940B018AB180668AB917BC18BC60
S113048084B5806A84BD84B5836084BD85B525B593
S113049090E0887F8160822B85BD84B1856084B9BA
S11304A0579A2A9A0E94200180910001909101019B
S11304B099231CF40E946E0202C00E9469022FE775
S11304C088E391E0215080409040E1F700C00000B3
S11304D0E9CF5F98289A87BD88BD08955F9A2898C8
S11304E087BD88BD08955058BB27AA270E948B0258
S11304F00C9475040E94670438F00E946E0420F086
S113050039F49F3F19F426F40C943D040EF4E0955D
S1130510E7FB0C943704E92F0E94860458F3BA17BA
S1130520620773078407950720F079F4A6F50C9405
S1130530A8040EF4E0950B2EBA2FA02D0B01B901DF
S113054090010C01CA01A0011124FF27591B99F045
S1130550593F50F4503E68F11A16F040A22F232F51
S1130560342F4427585FF3CF469537952795A795A1
S1130570F0405395C9F77EF41F16BA0B620B730B48
S1130580840BBAF09150A1F0FF0FBB1F661F771FB9
S1130590881FC2F70EC0BA0F621F731F841F48F46E
S11305A0879577956795B795F7959E3F08F0B0CFF7
S11305B09395880F08F09927EE0F979587950895DE
S11305C00E94670460F080E891E009F49EEF0E94C5
S11305D06E0428F040E851E071F45EEF0CC00C9416
S11305E03D040C94A804E92FE0780E94860440F3AB
S11305F0092E052AB1F3261737074807590738F09B
S11306000E2E07F8E02569F0E025E0640AC0EF63E8
S113061007F8009407FADB01B9019D01DC01CA0166
S1130620AD01EF930E9469030E9475040E942303A5
S11306305F91552339F02BED3FE049E450FD49EC3F
S11306400C9474020895DF93DD27B92FBF7740E837
S11306505FE31616170648075B0718F4D92F0E94A4
S1130660AF049F938F937F936F930E942405E8E6D2
S1130670F0E00E9440040E9475042F913F914F9135
S11306805F910E94CA04DD2351F09058A2EA2AED3A
S11306903FE049EC5FE3D0785D270E948B02DF9155
S11306A00C9475040E9466030C9475040E946E04F5
S11306B058F00E94670440F029F45F3F29F00C943D
S11306C0370451110C94A9040C943D040E9486042F
S11306D068F39923B1F3552391F3951B550BBB276D
S11306E0AA2762177307840738F09F5F5F4F220FB2
S11306F0331F441FAA1FA9F335D00E2E3AF0E0E8A9
S113070032D091505040E695001CCAF72BD0FE2FF2
S113071029D0660F771F881FBB1F26173707480786
S1130720AB07B0E809F0BB0B802DBF01FF2793583E
S11307305F4F3AF09E3F510578F00C9437040C94C7
S1130740A9045F3FE4F3983ED4F3869577956795C3
S1130750B795F7959F5FC9F7880F911D9695879573
S113076097F90895E1E0660F771F881FBB1F621792
S113077073078407BA0720F0621B730B840BBA0B50
S1130780EE1F88F7E09508950E94CB036894B11199
S11307900C94A90408950E948E0488F09F5798F041
S11307A0B92F9927B751B0F0E1F0660F771F881F72
S11307B0991F1AF0BA95C9F714C0B13091F00E948C
S11307C0A804B1E008950C94A804672F782F882713
S11307D0B85F39F0B93FCCF3869577956795B395B3
S11307E0D9F73EF490958095709561957F4F8F4F22
S11307F09F4F0895E89409C097FB3EF49095809527
S1130800709561957F4F8F4F9F4F9923A9F0F92FD2
S113081096E9BB279395F695879577956795B79550
S1130820F111F8CFFAF4BB0F11F460FF1BC06F5F36
S11308307F4F8F4F9F4F16C0882311F096E911C048
S1130840772321F09EE8872F762F05C0662371F069
S113085096E8862F70E060E02AF09A95660F771F7D
S1130860881FDAF7880F9695879597F9089597F971
S11308709F6780E870E060E008959FEF80EC089542
S1130880DF93CF931F930F93FF92EF92DF927B013D
S11308908C01689406C0DA2EEF010E94CA04FE019E
S11308A0E894A5912591359145915591A6F3EF01D1
S11308B00E948B02FE019701A801DA9469F7DF9088
S11308C0EF90FF900F911F91CF91DF910895002435
S11308D00A941616170618060906089500240A94A1
S11308E012161306140605060895092E0394000C27
S11308F011F4882352F0BB0F40F4BF2B11F460FFB6
S113090004C06F5F7F4F8F4F9F4F089557FD9058DE
S1130910440F551F59F05F3F71F04795880F97FBBF
S1130920991F61F09F3F79F0879508951216130679
S11309301406551FF2CF4695F1DF08C016161706A8
S11309401806991FF1CF86957105610508940895DD
S1130950E894BB2766277727CB0197F908959B0175
S1130960AC0160E070E080E89FE30C9452030E94C5
S1130970CA040C9475040E94670438F00E946E0443
S113098020F0952311F00C9437040C943D041124A9
S11309900C94A9040E94860470F3959FC1F3950FEB
S11309A050E0551F629FF001729FBB27F00DB11DEF
S11309B0639FAA27F00DB11DAA1F649F6627B00D7F
S11309C0A11D661F829F2227B00DA11D621F739F68
S11309D0B00DA11D621F839FA00D611D221F749F76
S11309E03327A00D611D231F849F600D211D822FBD
S11309F0762F6A2F11249F5750409AF0F1F08823E4
S1130A004AF0EE0FFF1FBB1F661F771F881F915010
S1130A105040A9F79E3F510580F00C9437040C9484
S1130A20A9045F3FE4F3983ED4F3869577956795E0
S1130A30B795F795E7959F5FC1F7FE2B880F911D3A
S1130A409695879597F908959B01AC010C94B7048A
S1070A50F894FFCF44
S9030000FC
