S0100000426C696E6B4C45442E737265634F
S11300000C9434000C9446000C9446000C94460066
S11300100C9446000C9446000C9446000C94460044
S11300200C9446000C9446000C9446000C945B011E
S11300300C9446000C9446000C9446000C94460024
S11300400C9446000C9446000C9446000C94460014
S11300500C9446000C9446000C9446000C94460004
S11300600C9446000C94460011241FBECFEFD8E038
S1130070DEBFCDBF21E0A0E0B1E001C01D92A630FB
S1130080B207E1F70E94CA000C94F2010C9400003C
S1130090ECEBF0E080818E7F808381E08093B80078
S11300A0E9EBF0E080818D7F8083089584EA80937A
S11300B0BC00ECEBF0E080818823ECF7089584E940
S11300C08093BC00ECEBF0E0808184FFFDCF0895C9
S11300D08093BB0084E88093BC00ECEBF0E080816B
S11300E08823ECF7089520E4829FC00111248468DA
S11300F08093BC00ECEBF0E080818823ECF78091E6
S1130100BB000895CF93DF93D82FC62F0E945600CB
S11301108C2F0E9468008D2F0E9468000E94560058
S113012081E08C0F0E94680080E00E947300C82F59
S11301300E945F008C2FDF91CF9108951F93CF937E
S1130140DF93D82FC62F142F0E945600812F0E94B0
S113015068008D2F0E9468008C2F0E9468000E9406
S11301605F00DF91CF911F910895CF9366ED8BE2ED
S11301700E948200C82F66ED8AE20E9482002C2F22
S113018030E0322F2227282B3093050120930401DD
S1130190CF9108950E94480046ED6AE080E20E94F3
S11301A09E000E94B5008AB180668AB917BC18BC4B
S11301B084B5806A84BD84B5836084BD85B525B566
S11301C090E0887F8160822B85BD84B1856084B98D
S11301D0579A2A9AB12C00E010E5C4E6D0E00F2E1D
S11301E0F4E6CF2ED12CE12CF12CF02D0E94B50099
S11301F08091040190910501992314F481589F4F33
S1130200880F892F881F990B9C012E5F3F4F0396FF
S1130210039710F42B2D302F129FC001139F900DC4
S11302201124BE010E946F01AB01770F660B770B9F
S11302308091000190910101A0910201B09103010C
S11302409A01AB01280F391F4A1F5B1FA3E6B0E0D8
S11302500E94A201A70196010E948301209300013C
S113026030930101409302015093030112161306C7
S11302701406150654F4C901992324F488279927F0
S1130280821B930B0E9465010FC0552354F4C901CE
S1130290992324F488279927821B930B0E946A01CF
S11302A003C080E00E946A018FE097E20197F1F7B2
S11302B000C000009BCF1F920F920FB60F92112423
S11302C00F900FBE0F901F9018955F98289A87BDC6
S11302D088BD08955F9A289887BD88BD089597FBC7
S11302E0072E16F4009407D077FD09D00E94AD01C3
S11302F007FC05D03EF4909581959F4F0895709525
S113030061957F4F0895052E97FB1EF400940E947B
S11303109A0157FD07D00E94C10107FC03D04EF497
S11303200C949A0150954095309521953F4F4F4F2D
S11303305F4F089590958095709561957F4F8F4F8D
S11303409F4F08950E94E301A59F900DB49F900DC7
S1130350A49F800D911D11240895AA1BBB1B51E17C
S113036007C0AA1FBB1FA617B70710F0A61BB70B21
S1130370881F991F5A95A9F780959095BC01CD01C6
S11303800895A1E21A2EAA1BBB1BFD010DC0AA1FD2
S1130390BB1FEE1FFF1FA217B307E407F50720F0EA
S11303A0A21BB30BE40BF50B661F771F881F991F65
S11303B01A9469F760957095809590959B01AC01AE
S11303C0BD01CF010895A29FB001B39FC001A39FB7
S11303D0700D811D1124911DB29F700D811D11247A
S10B03E0911D0895F894FFCF6C
S9030000FC
